:020000022000DC
:106000000000012019620200016202000362020026
:10601000056202000762020009620200000000003F
:106020000000000000000000000000000B62020001
:106030000D620200000000000F6202001162020007
:1060400079D202001362020081DF020089F70200A8
:106050001DEB0200136202007DDE0200DDE00200A3
:106060001362020013620200136202001362020054
:106070001362020013620200136202001362020044
:10608000136202002526030013620200136202005D
:1060900013620200136202007D52030013620200C9
:1060A0001362020013620200136202001362020014
:1060B00013620200136202000000000000000000F2
:1060C00013620200136202001362020031EB02004D
:1060D000136202001362020013620200000000005B
:1060E00000000000000000000000000000000000B0
:1060F00000000000000000000000000000000000A0
:10610000000000000000000000000000000000008F
:10611000000000000000000000000000000000007F
:10612000000000000000000000000000000000006F
:10613000000000000000000000000000000000005F
:10614000000000000000000000000000000000004F
:10615000000000000000000000000000000000003F
:10616000000000000000000000000000000000002F
:10617000000000000000000000000000000000001F
:10618000000000000000000000000000000000000F
:1061900000000000000000000000000000000000FF
:1061A00000000000000000000000000000000000EF
:1061B00000000000000000000000000000000000DF
:1061C00000000000000000000000000000000000CF
:1061D00000000000000000000000000000000000BF
:1061E00000000000000000000000000000000000AF
:1061F000000000000000000000000000000000009F
:10620000FEE7FEE7FEE7FEE7FEE7FEE7FEE7FEE766
:10621000FEE7FEE700F002B8FFF7FCBF0F484FF0C3
:106220000701884385460E4880470E48016841F4BF
:1062300070010160BFF34F8FBFF36F8F00F01AB88A
:1062400009480A490A4A884207D0521A05D00378F9
:1062500001300B700131013AF9D170470000012083
:10626000859C020088ED00E0C0B60300D82A00201B
:10627000D82A0020354936480A1A02D0072291430D
:106280008D46344934480A1A06D00722914381F3D7
:106290000988022282F3148830483149314A00F0DB
:1062A00044F831483149324A00F03FF83148324928
:1062B000324A00F03AF832483249334A00F035F8B1
:1062C00032483349334A00F030F833483349344ACE
:1062D00000F02BF833483449344A00F026F83448AB
:1062E0003449002200F02CF833483449002200F0F1
:1062F00027F833483349091A082902DB00220260D3
:106300004160314A90471F481F49884205D00268C2
:10631000043003B4904703BCF7E700208646EC4600
:1063200000200021294A9047FEE7884207D0521AF0
:1063300005D0037801300B700131013AF9D1704773
:10634000884202D002700130FAE770470000012055
:1063500000E000200000012000000120D0D2030056
:10636000D82A0020DC2B0020D0630200D06302007A
:106370005CB50300D0D20300D82A0020D82A002020
:10638000C0B60300C0B60300C0B60300C0B6030029
:10639000C0B60300C0B60300C0B60300C0B6030019
:1063A000D0D20300D4D30300DC2B0020DC2B002050
:1063B000DC2B00206C4D00206C4D0020704D002027
:1063C000704D0020706D002041620200F97C0200D7
:1063D00090B003900291019200230C9300238DF85A
:1063E0002F3000230A9300230993002308930023EE
:1063F0000F9300230E9311E0424B1A680E9B1A4430
:10640000414B1B68591C404801601278D2B210A958
:106410000B4403F8302C0E9B01330E930E9B082B7C
:10642000EADD03230D9329E004AA0D9B13441B7896
:10643000DBB21A040D9B013310A90B4413F8303C56
:10644000DBB21B0213430D9A023210A90A4412F860
:10645000302CD2B213430893089B1B020893089B6D
:106460000A930A9B1B120A930F9B5A1C0F92019AC4
:106470000A9942F823100D9B03330D930D9B082BB3
:10648000D2DD9DF81230DBB21A469DF81130DBB236
:106490001B021A439DF81030DBB21B0413430C930C
:1064A0000C9BDB1303F01F030C930C9B8DF82F3018
:1064B0009DF81330DBB21A049DF81430DBB21B02D6
:1064C00013439DF81520D2B213430993099B1B0275
:1064D0000993099A019B5A629DF82F3003F01F031C
:1064E000002B04D0019B012283F8202003E0019BB4
:1064F000002283F82020044B00221A600023184653
:1065000010B07047E42B0020E82B002000B587B0C6
:10651000039002910192029800F0F0F9642002F0D9
:10652000F0FC019800F00CFA019800F019FA0198BB
:1065300000F026FA039800F033FA039800F03BFAD3
:10654000322002F0DEFC039800F04BFA4FF4967014
:1065500002F0D7FC039A3E49002000F08BF93C4B37
:106560001B78732B01D002236DE0039A03210120D5
:1065700000F0D2F80A2002F0C4FC039AA021022005
:1065800000F0CAF80A2002F0BCFC039A1021032094
:1065900000F0C2F80A2002F0B4FC039A4021042063
:1065A00000F0BAF80A2002F0ACFC039A6021052042
:1065B00000F0B2F80A2002F0A4FC039A2C21062075
:1065C00000F0AAF80A2002F09CFC039A00210720A0
:1065D00000F0A2F80A2002F094FC039AF2210920AC
:1065E00000F09AF80A2002F08CFC039A03210A209A
:1065F00000F092F80A2002F084FC039800F0E6F91B
:106600000A2002F07EFC019800F0AAF9114A04ABBE
:106610001268114619800233120C1A7003238DF888
:10662000113004AB0C4A1946142007F091FA05907A
:10663000059B002B02D005980AF0BEFE0121142014
:1066400007F0F6FA0023184607B05DF804FB00BF18
:10665000DC2B0020C0B60300F969020000B585B04C
:106660000190019BDBB20021184602F035FC0023AB
:1066700003930CE0FF2002F04FFC034619460B4A3F
:10668000039B13440A461A70039B01330393039B35
:10669000082BEFDD019BDBB20121184602F01CFC48
:1066A000024B184605B05DF804FB00BFEC2B002040
:1066B00000B583B0034600918DF80730009BDBB234
:1066C0000021184602F008FC022002F01AFC009B90
:1066D000DBB20121184602F0FFFB022002F011FCA0
:1066E000009BDBB20021184602F0F6FB022002F00C
:1066F00008FC9DF80730184602F00EFC022002F05C
:1067000000FC009BDBB20121184602F0E5FB00BF54
:1067100003B05DF804FB000000B585B003460092AD
:106720008DF807300B468DF806309DF80730013B99
:106730000A2B63D801A252F823F000BF6967020058
:106740007767020091670200FD670200FD670200A3
:10675000FD670200AB670200B9670200C76702006D
:10676000D5670200EF6702009DF8063023F078033A
:106770008DF8063043E09DF8063023F004038DF8D1
:1067800006309DF8063063F07F038DF8063036E062
:106790009DF8063023F002038DF806309DF8063090
:1067A00043F010038DF8063029E09DF8063003F021
:1067B0003F038DF8063022E09DF8063003F05F03BA
:1067C0008DF806301BE09DF8063043F002038DF88B
:1067D000063014E09DF8063023F078038DF806307B
:1067E0009DF8063043F001038DF8063007E09DF870
:1067F000063003F00F038DF8063000E000BF9DF86F
:10680000073043F040038DF80F30009BDBB20021CE
:10681000184602F061FB022002F073FB009BDBB222
:106820000121184602F058FB022002F06AFB009B8F
:10683000DBB20021184602F04FFB022002F061FBA0
:106840009DF80F30184602F067FB002002F064FB51
:106850009DF80630184602F05FFB022002F051FB63
:10686000009BDBB20121184602F036FB00BF05B0E9
:106870005DF804FB00B587B00346029101928DF8E4
:106880000F309DF80F3043F020038DF81730019B37
:10689000DBB20021184602F01FFB022002F031FBA0
:1068A000019BDBB20121184602F016FB022002F028
:1068B00028FB019BDBB20021184602F00DFB0220F1
:1068C00002F01FFB9DF81730184602F025FB002050
:1068D00002F022FB002002F01FFB03461A46029B37
:1068E0001A70022002F00DFB019BDBB20121184659
:1068F00002F0F2FA00BF07B05DF804FB00B583B008
:106900000190019BDBB20121184602F0E5FA6420F8
:1069100002F0F7FA019BDBB20021184602F0DCFA24
:10692000642002F0EEFA019BDBB20121184602F06E
:10693000D3FA642002F0E5FA00BF03B05DF804FB6F
:1069400000B583B00190019BDBB20021184602F034
:10695000C3FA142002F0D5FA00BF03B05DF804FBBF
:1069600000B583B00190019BDBB20121184602F013
:10697000B3FA142002F0C5FA00BF03B05DF804FBBF
:1069800000B583B00190019BDBB20021184602F0F4
:10699000A3FA642002F0B5FA00BF03B05DF804FB6F
:1069A00000B583B0019001990820FFF781FE00BF78
:1069B00003B05DF804FB00B583B0019001990A2093
:1069C000FFF776FE00BF03B05DF804FB00B583B0AF
:1069D000019001991020FFF76BFE00BF03B05DF836
:1069E00004FB00B583B0019001991120FFF760FE10
:1069F00000BF03B05DF804FB00B583B001900B4607
:106A00008DF803301F20FFF729FE0346054A136067
:106A1000054B1B680133044A136000BF03B05DF8E7
:106A200004FB00BFE42B0020E02B002000B585B064
:106A300001900091009B002B15D0019B002B12D0E0
:106A4000009B0393019B1B88102B02D0502B05D079
:106A50000AE00199039800F00AF805E0019903980B
:106A600000F00BF800E000BF05B05DF804FB82B059
:106A70000190009100BF02B0704782B00190009178
:106A800000BF02B0704700B585B001900091009B37
:106A9000002B15D0019B002B12D0009B0393019B70
:106AA0001B88102B02D0502B05D00AE001990398C7
:106AB00000F00AF805E00199039800F00BF800E0F7
:106AC00000BF05B05DF804FB82B00190009100BFEB
:106AD00002B0704782B00190009100BF02B07047D1
:106AE00000B585B001900091009B002B15D0019B53
:106AF000002B12D0009B0393019B1B88102B02D00C
:106B0000502B05D00AE00199039800F00AF805E03F
:106B10000199039800F00BF800E000BF05B05DF8A4
:106B200004FB82B00190009100BF02B0704782B0B8
:106B30000190009100BF02B0704708B51E221321DA
:106B40001F20FFF7E3FC0346184608BD00B58FB0D1
:106B5000019003AB1A461F211420FFF739FC0346AE
:106B60008DF837309DF83730002B1BD1049B1B125A
:106B70001AB20F4B1A800C9B1B121AB20D4B1A80C3
:106B80009DF82C3083F00103DBB2002B05D10A4BBA
:106B900000221A80094B00221A80054BB3F900200D
:106BA000019B1A809DF8373018460FB05DF804FB42
:106BB000F62B0020FA2B0020F82B0020FC2B0020C5
:106BC00000B585B00190019B002B0AD0074B43F024
:106BD00001030393019B9B010293039B0298984737
:106BE00000E000BF05B05DF804FB00BFE0B60300A5
:106BF00000B583B00190019B0433184608F0C6F934
:106C000000BF03B05DF804FB00B589B005900392A6
:106C10001A460B468DF8133013468DF812300023B8
:106C20000793059B181D9DF812209DF813109DF8E1
:106C3000283000931346039A08F0C6FC0790079B80
:106C4000184609B05DF804FB00B587B003900192C7
:106C50001A460B468DF80B3013468DF80A30002388
:106C60000593039B181D9DF80A309DF80B10019A9F
:106C700008F0D2FC0590059B184607B05DF804FBB0
:106C800000B58FB003900291009313468DF8073042
:106C900000230D93029B05939DF807300693009BFC
:106CA00007939DF840300893039B043305A9002205
:106CB000184607F0CDFE0D900D9B18460FB05DF8FD
:106CC00004FB82B001904FF0A043184602B0704719
:106CD00000B585B00190084611461A4603468DF866
:106CE00003300B468DF8023013468DF8013001ABAE
:106CF0001846FFF7E6FF03909DF803209DF8023049
:106D00005B001A439DF801309B001A439DF8183030
:106D10001B0242EA03019DF81C301B04019A19432F
:106D2000039B02F5E07243F8221000BF05B05DF846
:106D300004FB00B585B0039000230193002300936A
:106D40000023012201210398FFF7C2FF00BF05B015
:106D50005DF804FB00B585B003900B468DF80B3051
:106D60009DF80B30002201920022009200220021A7
:106D70000398FFF7ADFF00BF05B05DF804FB00B559
:106D800085B0019001AB1846FFF79BFF0390019B74
:106D9000012202FA03F31946039800F02AF800BF13
:106DA00005B05DF804FB00B585B0019001AB184655
:106DB000FFF787FF0390019B012202FA03F31946B4
:106DC000039800F020F800BF05B05DF804FB00B5A3
:106DD00083B001900091009B002B03D10198FFF735
:106DE000E2FF02E00198FFF7CAFF00BF03B05DF8C1
:106DF00004FB82B001900091019B009AC3F8082522
:106E000000BF02B0704782B001900091019B009AD0
:106E1000C3F80C2500BF02B0704700B583B00190E5
:106E2000019B002B0AD04FF47A70FFF7C9FE019B3B
:106E3000013B0193019B002BF5D100E000BF03B0A3
:106E40005DF804FB08B500F079F800F0F9F800F0FF
:106E50009FF800F0C9F800BF08BD000000B587B07A
:106E60000346049103928DF81730039BDBB29DF823
:106E7000171000220092049A0648FFF7C5FE034649
:106E8000002B01D0002300E00123184607B05DF875
:106E900004FB00BFD82A002000B585B0034602914C
:106EA00001928DF80F30019BDBB29DF80F10029A12
:106EB0000648FFF7C9FE0346002B01D0002300E07F
:106EC0000123184605B05DF804FB00BFD82A002056
:106ED00000B583B003460A468DF8073013468DF897
:106EE00006309DF807309DF8062011461846FFF73A
:106EF0006EFF00BF03B05DF804FB000000B587B073
:106F0000059004911346ADF80E30BDF80E30DAB29C
:106F1000BDF80E30DBB20093049B05990648FFF7DD
:106F2000AFFE0346002B01D0022300E000231846E9
:106F300007B05DF804FB00BFE82A002000B587B069
:106F40006B4600221A605A609A60DA601B23009335
:106F50001A2301934FF0CD63029302238DF80C3076
:106F6000694600230022094805F058FF0590059B5B
:106F70000493049B002B02D004980AF01DFA0348E6
:106F8000FFF736FE00BF07B05DF804FBD82A0020EB
:106F900010B586B0124B6C460FCB84E80F00192356
:106FA0008DF801301C238DF802301D238DF8003040
:106FB00001238DF80C304FF0805302936946002373
:106FC0000022084805F0DEFD0590059B0493049B14
:106FD000002B02D004980AF0EFF900BF06B010BDF4
:106FE000C4B60300E82A002010B586B0124B6C46E8
:106FF0000FCB84E80F0005238DF801300C238DF8AA
:10700000023002238DF8003000238DF80C304FF051
:1070100080530293694600230022084805F0B2FD20
:107020000590059B0493049B002B02D004980AF062
:10703000C3F900BF06B010BDC4B60300F82A002093
:1070400000B583B006F020FD0190019B0093009BEA
:10705000002B02D000980AF0AFF903211420FFF7AB
:1070600079FE0420FFF765FE1F20FFF762FE132064
:10707000FFF75FFE1E20FFF75CFE1720FFF759FEAB
:1070800001210420FFF724FF01211F20FFF720FF2B
:1070900001211320FFF71CFF00211E20FFF718FF1E
:1070A00001211720FFF714FF00BF03B05DF804FBB8
:1070B00000B585B00190019B002B0AD0074B43F02F
:1070C00001030393019B9B010293039B0298984742
:1070D00000E000BF05B05DF804FB00BFD0B70300BF
:1070E00082B001904FF0A043184602B0704700B53F
:1070F00085B00190084611461A4603468DF80330C4
:107100000B468DF8023013468DF8013001AB18465E
:10711000FFF7E6FF03909DF803209DF802305B0027
:107120001A439DF801309B001A439DF818301B024A
:1071300042EA03019DF81C301B04019A1943039B8A
:1071400002F5E07243F8221000BF05B05DF804FBC1
:1071500000B585B003900023019300230093002322
:10716000012201210398FFF7C2FF00BF05B05DF8BF
:1071700004FB00B585B003900B468DF80B309DF8ED
:107180000B3000220192002200920022002103987D
:10719000FFF7ADFF00BF05B05DF804FB00B585B09B
:1071A000019001AB1846FFF79BFF0390019B012262
:1071B00002FA03F31946039800F043F800BF05B044
:1071C0005DF804FB00B585B0019001AB1846FFF7F0
:1071D00087FF0390039BD3F804350293029BDA43A5
:1071E000019B012101FA03F31A40039BC3F8082510
:1071F000019B01229A40029B1A40039BC3F80C2575
:1072000000BF05B05DF804FB00B585B0019001AB8F
:107210001846FFF765FF0390039800F00AF802464E
:10722000019B22FA03F303F00103184605B05DF851
:1072300004FB82B00190019BD3F81035184602B0D0
:10724000704782B001900091019B009AC3F80C2511
:1072500000BF02B0704772DF704700BF184673DF8F
:10726000704700BF184676DF704700BF18467ADFC8
:10727000704700BF18467CDF704700BF18467FDFAD
:10728000704700BF18468FDF704700BF1846B1DF58
:10729000704700BF184600B583B00190019B002BDA
:1072A0000AD04FF47A70FFF703FF019B013B019373
:1072B000019B002BF5D100E000BF03B05DF804FB9B
:1072C00008B5012002F0BEF81120FFF741FF0321AD
:1072D0001820FFF74EFF1120FFF760FF00BF08BD29
:1072E00008B51820FFF790FF0346002B0BD1642050
:1072F000FFF7D1FF1820FFF787FF0346002B02D1CD
:107300001120FFF75FFF00BF08BD000000B587B088
:1073100001900091019BB3F900301A46019BB3F92B
:10732000003003FB02F2019B0233B3F9003019462F
:10733000019B0233B3F9003001FB03F31A44019BB4
:107340000433B3F900301946019B0433B3F900301C
:1073500001FB03F31344184612F032F84FF0000219
:10736000494B11F09DFE02460B461046194612F09D
:1073700063F8034600EE103A12F0BCFE8DED050AEC
:10738000019B0633B3F900301A46019B0633B3F96B
:10739000003003FB02F2019B0833B3F900301946B9
:1073A000019B0833B3F9003001FB03F31A44019B3E
:1073B0000A33B3F900301946019B0A33B3F90030A0
:1073C00001FB03F31344184611F0FAFF4FF00002DB
:1073D0002D4B11F065FE02460B461046194612F081
:1073E0002BF8034600EE103A12F084FE8DED040AED
:1073F000019B0C33B3F900301A46019B0C33B3F9EF
:10740000003003FB02F2019B0E33B3F90030194642
:10741000019B0E33B3F9003001FB03F31A44019BC7
:107420001033B3F900301946019B1033B3F9003023
:1074300001FB03F31344184611F0C2FF4FF00002A2
:10744000114B11F02DFE02460B461046194611F065
:10745000F3FF034600EE103A12F04CFE8DED030AE6
:10746000DDED047A9FED097AF4EEC77AF1EE10FAB9
:1074700003DD009B01221A7002E0009B00221A70BB
:1074800000BF07B05DF804FB000008400000F042B8
:107490000C4B4FF000021A600B4B4FF000021A60C9
:1074A0000A4B4FF000021A60094B4FF000021A60BD
:1074B000084B4FF000021A60074B4FF000021A60B1
:1074C00000BF7047BC310020AC310020A831002043
:1074D000B0310020B8310020B4310020084B4FF00B
:1074E00000021A60074B4FF000021A60064B4FF083
:1074F00000021A60054B4FF000021A6000BF70478F
:10750000E8340020EC340020F0340020F434002073
:1075100000B585B00223ADF8023000238DF80F309E
:1075200023E09DF80F300133DBB28DF804309DF875
:107530000F30124AD35C8DF805309DF80F209DF86E
:107540000F300E49895C0E4AD1549DF80F300B4A1A
:1075500013440DF1020219460A4801F0F1FD0290B0
:107560009DF80F3001338DF80F309DF80F30122B3E
:10757000D7D900BF00BF05B05DF804FB1C35002063
:107580003C3500200031002008B5154B1B6818461B
:1075900011F038FF02460B46124812F0E7FF124B7B
:1075A0001B68184611F02EFF02460B460F4812F0DA
:1075B000DDFF0F4B1B68184611F024FF02460B46F7
:1075C0000C4812F0D3FF0C4B1B68184611F01AFF41
:1075D00002460B46094812F0C9FF00BF08BD00BFB4
:1075E000E8340020F4B60300EC3400200CB70300AC
:1075F000F034002024B70300F43400203CB703002B
:1076000000B583B0344B01932BE0019BD3ED007A9E
:10761000F5EEC07AF1EE10FA05D5019BD3ED007AB4
:10762000F1EE677A02E0019BD3ED007A2B4B93EDEC
:10763000007A77EE877A294BC3ED007A019B93EDB0
:10764000007A019BD3ED007A27EE277A244BD3ED05
:10765000007A77EE277A224BC3ED007A019B043340
:107660000193019BD3ED007AF5EE407AF1EE10FA2A
:10767000CBD11A4B93ED007ADFED1A6AC7EE267A6A
:10768000194BC3ED007A164B93ED007ADFED176AC4
:10769000C7EE267A164BC3ED007A114BD3ED007A74
:1076A0009FED107AC7EE876A16EE900A11F0AAFED7
:1076B00002460B4643EC102B12F002FB53EC102B4E
:1076C0001046194611F0B8FE03460A4A136000BF7F
:1076D00003B05DF804FB00BFE4310020AC310020B2
:1076E000B031002000008042A831002000007C4220
:1076F000B4310020B831002000B583B02E4B1A7889
:107700002E4B1A702D4B1B7819462D4800F08BFE1E
:107710000023019302E0019B01330193274B1B7867
:107720001A46019B9342F6D3244B1B781A46254BED
:10773000D3ED007AB0EE670A1146214800F06BFFE6
:10774000F0EE407A204BC3ED007A1C4B1B781A46B2
:107750001C4BD3ED007AB0EE670A1146184800F0D2
:10776000ADFFF0EE407A194BC3ED007A134B1B7856
:1077700007EE903AF8EE677A124B93ED007AF0EE4E
:10778000470AB0EE670A0E4801F030F8F0EE407A92
:107790000F4BC3ED007A094B1B781946084800F0DF
:1077A000C6FEF0EE407A0B4BC3ED007AFFF7ECFE1D
:1077B00000BF03B05DF804FBE4320020F834002081
:1077C000E8320020202B0020E8340020EC34002098
:1077D000F0340020F434002000B583B00190019B08
:1077E0001B78012B09D100F00DF800F077F8FFF7B6
:1077F0008FFEFFF74DFEFFF771FE00BF03B05DF88F
:1078000004FB0000264BD3ED007AFCEEE77A17EE7E
:10781000902A244B1A60244BD3ED007AFCEEE77AD1
:1078200017EE902A214B1A60214B93ED007ADFED81
:10783000216AC7EE267AFCEEE77A17EE902A1E4BF5
:107840001A601E4B93ED007ADFED1A6AC7EE267AB6
:10785000FCEEE77A17EE902A194B1A60194B93ED5C
:10786000007ADFED146AC7EE267AFCEEE77A17EEAF
:10787000902A154B1A60154BD3ED007AFCEEE77A8F
:1078800017EE902A124B1A60124BD3ED007AFCEEE1
:10789000E77A17EE902A104B1A6000BF704700BFBE
:1078A000A031002010350020A4310020FC3400203D
:1078B000AC31002000007A4400350020B0310020B7
:1078C00004350020B431002008350020E8340020C1
:1078D0000C350020EC34002014350020394B0B22ED
:1078E0001A70394B1B681B0ADAB2364B5A70364B8A
:1078F0001B68DAB2334B9A70344B1B681B0EDAB23A
:10790000304BDA70314B1B681B0CDAB22D4B1A71FD
:107910002E4B1B681B0ADAB22A4B5A712B4B1B6881
:10792000DAB2284B9A712A4B1B681B0EDAB2254B30
:10793000DA71274B1B681B0CDAB2224B1A72244BEC
:107940001B681B0ADAB21F4B5A72214B1B68DAB252
:107950001C4B9A721F4B1B681B0CDAB2194BDA7264
:107960001C4B1B681B0ADAB2164B1A73194B1B68A7
:10797000DAB2144B5A73184B1B681B0ADAB2114B5C
:107980009A73154B1B68DAB20E4BDA73134B1B68F4
:107990001B0ADAB20B4B1A74104B1B68DAB2094B94
:1079A0005A740F4B1B681B0ADAB2064B9A740C4BC5
:1079B0001B68DAB2034BDA74024B00221A7500BF5F
:1079C000704700BF1C350020FC340020003500202B
:1079D00004350020083500200C350020103500202B
:1079E0001435002010B485B00190304B1B785A1C20
:1079F000D1B22E4A11701846019B1A682C49830097
:107A00000B441A60294B1B78062B02D9274B002206
:107A10001A7000238DF80F3013E09DF80F30244AC0
:107A20009B00134493ED007A224BD3ED007A77EE5E
:107A3000277A204BC3ED007A9DF80F3001338DF883
:107A40000F309DF80F30072BE7D91A4B93ED007AD2
:107A5000F2EE006AC7EE267A174BC3ED007A174B99
:107A60001B781846144B1A68154983000B441A609A
:107A7000114B1968114B1B785A1CD0B20F4A107069
:107A80001A460C464FF000000E4BD10019440C6012
:107A9000D200134404331860064B4FF000021A6002
:107AA00000BF05B05DF8044B704700BFE031002017
:107AB000C0310020BC310020A4310020E43200207D
:107AC000E4310020E832002084B003468DF807300E
:107AD0000223ADF80C309DF807308DF80B309DF87F
:107AE0000B308DF80F3010E09DF80F300133DBB212
:107AF0008DF808309DF80F30084AD35C8DF80930B6
:107B00009DF80F3001338DF80F309DF80F30122B98
:107B1000EAD900BF00BF04B0704700BF1C35002089
:107B200000B583B00190019B1A78664BA3FB02134A
:107B300019090B469B000B449B00D31ADBB2002BA8
:107B400040F0B5800DF05AFE0346002B01D000F046
:107B500019FA5D480DF0FEFD0346002B00F0A780EA
:107B6000594B1B78032B6BD0032B00F39B80012B0D
:107B700002D0022B32D095E0534BD3ED057A9FED26
:107B8000537A67EE877AFDEEE77A17EE903A1AB2EB
:107B90004F4B1A804C4BD3ED067A9FED4C7A67EE33
:107BA000877AFDEEE77A17EE903A1AB2484B5A8080
:107BB000454BD3ED077A9FED457A67EE877AFDEE68
:107BC000E77A17EE903A1AB2414B9A80414B1B78F4
:107BD00043F00103DAB23F4B1A7064E03A4BD3ED45
:107BE000057A9FED3D7A67EE877AFDEEE77A17EE2C
:107BF000903A1AB2364BDA80334BD3ED067A9FEDCA
:107C0000367A67EE877AFDEEE77A17EE903A1AB287
:107C10002F4B1A812C4BD3ED077A9FED2F7A67EE0D
:107C2000877AFDEEE77A17EE903A1AB2284B5A811E
:107C3000284B1B7843F00203DAB2264B1A7032E06D
:107C4000214BD3ED057A9FED217A67EE877AFDEE21
:107C5000E77A17EE903A1AB21D4B9A811A4BD3ED80
:107C6000067A9FED1A7A67EE877AFDEEE77A17EECD
:107C7000903A1AB2164BDA81134BD3ED077A9FED87
:107C8000137A67EE877AFDEEE77A17EE903A1AB22A
:107C90000F4B1A820F4B1B7843F00403DAB20D4BE3
:107CA0001A7000E000BF0D490948FFF72FFB019B48
:107CB0001B780133DAB2019B1A7000BF03B05DF884
:107CC00004FB00BFCDCCCCCC7031002000007A4446
:107CD000583100206A31002000401C461835002031
:107CE000044B1B783F2B02D9024B00221A7000BFB5
:107CF000704700BFE432002000B58BB00023099329
:107D000000F07CF9FFF7DCFA00F0C5FD01F0E2F8C5
:107D100000F08CF901F0B0F800F0CEFD00F016FE96
:107D200000F0D8FE00F028FE00F04EFF234A244B5E
:107D3000D31ADB081B0443F00303224918460CF056
:107D4000B1FA214812F012FC00F070FFFFF7B8FA08
:107D500010F0FAFC00F06AF9FFF774F8FEF7EDFE98
:107D60000DF0CAFC00F00EF9FFF7BAFA1748FEF75B
:107D7000EDFE0346002BF7D1144BB3F9003007EEAC
:107D8000903AF8EEE77A124BC3ED007A1048FFF70D
:107D900029FE104B1B78402B09D1FFF731FC052041
:107DA000FFF792FEFFF7A8FC0B48FFF715FDFFF762
:107DB00097FF0A48FFF7B4FED6E700BF38B60300C6
:107DC000F8B5030054B703006CB70300543100202A
:107DD000A0310020E4320020183500206B31002053
:107DE00000B585B003460A468DF807301346ADF856
:107DF0000430BDF804301B0B9BB2DBB203F00F0361
:107E0000DBB28DF80C30BDF804309B099BB2DBB2BD
:107E100003F03F03DBB28DF80D30BDF80430DBB268
:107E200003F03F03DBB28DF80E309DF807309B085E
:107E3000DBB203F00703DBB28DF808309DF80730A2
:107E40001B01DBB203F03003DBB28DF809309DF883
:107E50000730002B34D09DF80820464B1B78134385
:107E6000DBB2184609F0E2FF0346002BF3D19DF880
:107E70000920414B1B781343DAB29DF80C301343B1
:107E8000DBB2184609F0D2FF0346002BEFD19DF874
:107E90000D20394B1B781343DBB2184609F0C6FF9F
:107EA0000346002BF3D19DF80E20334B1B78134370
:107EB000DBB2184609F0BAFF0346002BF3D154E0B9
:107EC000BDF8043023F07F03002B09D1BDF8043046
:107ED000DBB2184609F0AAFF0346002BF6D144E0B6
:107EE000BDF8043023F4FF6323F00703002B18D1FF
:107EF0009DF80D20214B1B781343DBB2184609F087
:107F000095FF0346002BF3D19DF80E201A4B1B78EA
:107F10001343DBB2184609F089FF0346002BF3D167
:107F200023E09DF80C20164B1B781343DBB2184658
:107F300009F07CFF0346002BF3D19DF80D200E4B7A
:107F40001B781343DBB2184609F070FF0346002B81
:107F5000F3D19DF80E20084B1B781343DBB2184673
:107F600009F064FF0346002BF3D100BF05B05DF8B4
:107F700004FB00BFD6B70300D7B70300D8B7030090
:107F8000D9B7030000B583B00023019322E0154A5E
:107F9000019B13441B788DF803309DF8033041F2A8
:107FA000883118460DF0F8FB034683F00103DBB27D
:107FB000002B0CD09DF803301BB26FEAC3436FEA6D
:107FC000D3431BB29BB219461E20FFF709FF019B4A
:107FD00001330193019B022BD9D900BF00BF03B02D
:107FE0005DF804FBDCB7030000B583B00190019895
:107FF00009F0E2F900BF03B05DF804FB00B583B0FF
:108000004FF4804108480BF06FFE0190019B0093F4
:10801000009B002B02D0009809F0CEF90BF0F6FD82
:1080200000BF03B05DF804FBE51B030000B583B09F
:108030000BF098FA0190019B0093009B002B02D05B
:10804000009809F0B9F900BF03B05DF804FB84B0F3
:1080500001900023039305E0039B01330393019BED
:108060005B080193019B002BF6D1039B013B184653
:1080700004B0704786B003900291019200230593EB
:108080001EE0059BDB00039A1A44059B1B01029925
:108090000B441168526819605A60019B5A08059B8D
:1080A0001344DB00039A1A44059B1B010833029911
:1080B0000B441168526819605A60059B013305939F
:1080C000019B5B08059A9A42DBD300BF00BF06B054
:1080D000704700002DE9F04F8BB00590049103929A
:1080E000B0EE407AF0EE607A17EE102A17EE903A72
:1080F00001920293019B0893029B0793002309932B
:10810000AEE0099BDB00059A134493ED006AD3EDC2
:10811000016A039B5A08099B1344DB00059A134428
:1081200093ED007AD3ED017A099B1B01049A134465
:1081300036EE077A76EEA77A83ED007AC3ED017A00
:10814000099BDB00059A134493ED007A039B5A08C0
:10815000099B1344DB00059A1344D3ED007A77EEB4
:10816000677A17EE900A11F04DF980468946099B0F
:10817000DB00059A134493ED017A039B5A08099B8F
:108180001344DB00059A1344D3ED017A77EE677A46
:1081900017EE900A11F036F982468B46DFED361A5B
:1081A0009FED361ADDED070A9DED080A10F0F2FA90
:1081B000B0EE407AF0EE607A17EE103A17EE906A61
:1081C000184611F01FF904460D46304611F01AF911
:1081D00002460B462046294641EC160B43EC172B72
:1081E000B0EE460AF0EE660AB0EE471AF0EE671AF5
:1081F00011F0B4FFB0EE407AF0EE607AB0EE416A72
:10820000F0EE616AB0EE463AF0EE663AB0EE472A1A
:10821000F0EE672A4BEC11AB49EC108B10F0ECFB45
:10822000B0EE406AF0EE606AB0EE417AF0EE617A4C
:1082300053EC162B57EC176B1046194611F0FCF84F
:1082400004463046394611F0F7F80146099B1B01F8
:108250000833049A13441C605960099B0133099345
:10826000039B5B08099A9A42FFF44BAF00BF00BF23
:108270000BB0BDE8F08F00BFDB0FC9C0000000806D
:1082800084B001900091002303930023029311E036
:10829000019A029B22FA03F303F00102009B591E8C
:1082A000029BCB1A02FA03F3039A13430393029B34
:1082B00001330293029A009B9A42E9DB039B184622
:1082C00004B0704700B589B0039002910192019803
:1082D000FFF7BDFE0590059B023B079331E0019A35
:1082E000079B22FA03F30493002306931FE0039BEA
:1082F00003F001039B00029A13441A68069BDB00FB
:10830000D018039B03F00103002B01D1042300E0EC
:108310000023029A13441A68069BDB001344049A54
:108320001946FFF7A7FE069A049B13440693069A84
:10833000019B9A42DBD3079B013B0793039B0133CD
:108340000393079B002BCADA039B184609B05DF81C
:1083500004FB00B58BB00390029101920198FFF7E6
:1083600076FE0790079B013B099354E0019A099B15
:1083700022FA03F306930023089342E0089A069B2F
:10838000B2FBF3F309991846FFF77AFF07EE900A5C
:10839000F8EE676A0222099B02FA03F307EE903AAD
:1083A000B8EEE77AC6EE877ACDED047A4FF0000397
:1083B0000593039B03F001039B00029A13441A6880
:1083C000089BDB00D018039B03F00103002B01D1B5
:1083D000042300E00023029A13441A68089BDB0080
:1083E00013449DED047ADDED057AB0EE470AF0EE18
:1083F000670A069A1946FFF76DFE089A069B134412
:108400000893089A019B9A42B8D3099B013B0993B0
:10841000039B01330393099B002BA7DA039B1846A8
:108420000BB05DF804FB00B587B001900091009B94
:10843000002B01D1002340E0009B5A1E009B1340FB
:10844000002B01D0012338E0019B0393009BDB004C
:10845000184611F0CDFF03460493049B002B02D174
:108460004FF0FF3329E00023059303AB009A194630
:108470000598FFF727FF059003AB009A194605986A
:10848000FFF767FF059003AB009A19460598FFF7C1
:1084900019FF0590059B03F001039B0006AA1344F6
:1084A00053F80C1C009BDB001A46019812F040F8B0
:1084B000049B184611F0E4FF0023184607B05DF84E
:1084C00004FB70B582B0B0EE407AF0EE607A17EE41
:1084D000102A17EE903A00920193009B019E1846D5
:1084E00010F090FF04460D463346184610F08AFF00
:1084F00002460B462046294641EC160B43EC172B4F
:10850000B0EE460AF0EE660AB0EE471AF0EE671AD1
:1085100011F080FE53EC102B1046194610F08CFF22
:10852000034607EE903AB0EE670A02B070BD2DE93F
:10853000704F86B0019000914FF000030593002327
:1085400004935CE0049BDB00019A13441A685C68A6
:10855000104610F057FF80468946204610F052FF23
:1085600082468B46049BDB00019A13441A685E68BE
:10857000104610F047FF04460D46304610F042FF0B
:1085800002460B462046294641EC160B43EC172BBE
:10859000B0EE460AF0EE660AB0EE471AF0EE671A41
:1085A00011F0CEFDB0EE407AF0EE607AB0EE416AA6
:1085B000F0EE616AB0EE463AF0EE663AB0EE472A67
:1085C000F0EE672A4BEC11AB49EC108B10F014FA6B
:1085D000B0EE407AF0EE607A53EC172B1046194655
:1085E00010F02AFF034603939DED057ADDED037A33
:1085F00077EE277ACDED057A049B01330493049B33
:10860000009A9A429ED8059B07EE903AB0EE670A10
:1086100006B0BDE8708F00B589B0039002918DED72
:10862000010A4FF0000307930023069332E0069BF4
:10863000DB00039A13441A685B6807EE102A07EE02
:10864000903AB0EE470AF0EE670AFFF73AFF8DED79
:10865000050A069B07EE903AB8EEE77ADDED017A5F
:1086600067EE276A029B07EE903AB8EE677AC6EE8D
:10867000877ACDED047A9DED057ADDED047A67EE1B
:10868000277A9DED077A77EE277ACDED077A069B5C
:1086900001330693069B029A9A42C8D8029B07EEC2
:1086A000903AF8EE677A9DED077AC7EE276AF0EE0A
:1086B000667AB0EE670A09B05DF804FB2DE9F04375
:1086C0008DB000AFF860B96087ED010A6B461E46B9
:1086D000B9680B46013BBB620023884699464FF0C0
:1086E00000024FF000034FEA491343EAD8634FEA10
:1086F000481200230C461D464FF000024FF00003C5
:108700006B0143EAD46362018B000733DB08DB00B3
:10871000ADEB030D6B4603339B089B007B6200238C
:10872000FB6232E0FB6ADB00FA6813441A685B689C
:1087300007EE102A07EE903AB0EE470AF0EE670A0D
:10874000FFF7BFFE87ED060AFB6A07EE903AB8EE28
:10875000677AD7ED017A67EE276ABB6807EE903A31
:10876000B8EE677AC6EE877AC7ED057A97ED067A96
:10877000D7ED057A67EE277A7A6AFB6A9B00134485
:10878000C3ED007AFB6A0133FB62FA6ABB689A4266
:10879000C8D3BB685B083B62BB6803F00103002BD6
:1087A00016D13B6A013B7A6A9B00134493ED007A31
:1087B0007A6A3B6A9B001344D3ED007A37EE277A3E
:1087C000F0EE006AC7EE267AC7ED077AFB6904E08F
:1087D0007A6A3B6A9B0013441B68B54607EE903AE1
:1087E000B0EE670A3437BD46BDE8F08300B58BB004
:1087F00003908DED020ACDED010A4FF000030993BD
:108800004FF0000308930023079330E0079BDB0041
:10881000039A13441A685B6807EE102A07EE903A31
:10882000B0EE470AF0EE670AFFF74BFE8DED060A41
:10883000079B07EE903AB8EE677ADDED017A67EEB6
:10884000276A9DED027AC6EE877ACDED057A9DED19
:10885000067ADDED097AB4EEE77AF1EE10FA03DD7F
:10886000069B0993059B0893079B01330793079B7E
:1088700007EE903AF8EE677A9DED027AB4EEE77A69
:10888000F1EE10FAC2DC089B07EE903AB0EE670AF0
:108890000BB05DF804FB00B583B009F0B7F80190A8
:1088A000019B0093009B002B02D0009808F084FDF0
:1088B00000BF03B05DF804FB00B587B09DF8003041
:1088C000012262F303038DF800309DF8003001228D
:1088D00062F307138DF800301B4811F01DFF0346AB
:1088E0009AB26B4618491846FEF7C5FC0590059BE1
:1088F0000493049B002B02D0049808F05DFD01ABAB
:1089000008220021184611F08BFE1023ADF8043028
:108910003C23ADF806300023ADF808304FF4C8739F
:10892000ADF80A3001AB1846FEF7A1FC0590059B97
:108930000393039B002B02D0039808F03DFD00BF7A
:1089400007B05DF804FB00BF84B7030000B583B037
:108950000021084803F076FC0190019B0093009BE6
:10896000002B02D0009808F027FD00BF03B05DF88F
:1089700004FB00BF942C002000B5ABB041F22353A0
:10898000ADF81C30334B9B7C8DF81E3017AB3C226E
:108990000021184611F044FE02238DF85C300123BB
:1089A0008DF85E3006238DF85F3008AB3C22002145
:1089B000184611F035FE0123ADF8303007AB0D93AA
:1089C000254B196817AB254A184601F04DFF299031
:1089D000299B2893289B002B02D0289808F0ECFCB8
:1089E0001D4B996808AB1E4A184601F03DFF2990BF
:1089F000299B2793279B002B02D0279808F0DCFCAB
:108A000001AB18220021184611F00AFE01238DF84F
:108A1000193044F25063ADF8103001238DF8043062
:108A20000023029300238DF818304023039301ABF9
:108A30001A4609490B48FEF70EFC2990299B2693FC
:108A4000269B002B02D0269808F0B6FC00BF2BB066
:108A50005DF804FBE83000200C2B0020102B0020D8
:108A6000182B0020082B002000B583B0034600918E
:108A7000ADF8063013468DF805309DF80530002B13
:108A80000ED0002000F072FC0E4A0F4BD31ADB0808
:108A90001B0443F003030D4918460BF003FC0DE0E3
:108AA000002000F075FC074A074BD31ADB081B04B3
:108AB00043F00303064918460BF0F4FB00BF03B074
:108AC0005DF804FB38B60300F8B503008CB703006B
:108AD000A0B7030000B58BB00023059300230493D7
:108AE000214B049304AB1946204803F08FFC0990F6
:108AF000099B0893089B002B02D0089808F05CFCA7
:108B00001B4B059305AB19461A4803F02DFE09903F
:108B1000099B0793079B002B02D0079808F04CFC99
:108B20006B4610220021184611F07AFD00230093B5
:108B300001238DF8043001238DF80C3001238DF8CA
:108B40000D306B4619460C4800F0A2FA0990099BBB
:108B50000693069B002B02D0069808F02DFC00BF60
:108B60000BB05DF804FB00BFE97F0200A82C0020D9
:108B7000698A0200E83000200031002000B585B08D
:108B80000190019B1B78002B0ED1094B1B883B21C8
:108B90001846FEF768FB0390039B0293029B002B91
:108BA00002D0029808F008FC00BF05B05DF804FB95
:108BB0001C2B002000B583B00190019808F0FCFB4D
:108BC00000BF03B05DF804FB00B58BB001AB1C2205
:108BD0000021184611F024FD002301934FF4A03327
:108BE00002934FF4F023039303238DF810300023F6
:108BF000ADF8123000238DF814300A4B06930A4B5F
:108C0000079301AB184602F067FC0990099B089393
:108C1000089B002B02D0089808F0CEFB00BF0BB0D9
:108C20005DF804FB7D8B0200B58B020000B583B0BC
:108C30000A4B1B7801211846FEF711FB0190019B9E
:108C40000093009B002B02D0009808F0B5FB002099
:108C500000F08CFB00BF03B05DF804FB082B002084
:108C600000B58DB001900091019B1B88562B00F040
:108C7000D680562B00F3E380522B00F0AF80522BAE
:108C800000F3DD80212B2DDC102BC0F2D880103BAF
:108C9000112B00F2D48001A252F823F0ED8C0200D7
:108CA0004D8D02003F8E02008D8D02003F8E02002E
:108CB0003F8E02003F8E02003F8E02003F8E020078
:108CC0003F8E02003F8E02003F8E02003F8E020068
:108CD0003F8E02003F8E02003F8E02003F8E020058
:108CE000AF8D02003B2B00F08A80A8E05C4A5D4B10
:108CF000D31ADB081B0443F003035B4918460BF04F
:108D0000D1FA002000F032FB002000F041FB019B73
:108D10009A88564B1A80554B1B881946544803F0C5
:108D200097FB0B900B9B0493049B002B02D00498A1
:108D300008F042FB08F0E2FA0B900B9B0393039BB5
:108D4000002B7ED0039808F037FB7AE0444A454B6D
:108D5000D31ADB081B0443F00303464918460BF003
:108D6000A1FA002000F002FB404B4FF6FF721A8080
:108D700008F0E6FA0B900B9B0593059B002B02D0A5
:108D8000059808F019FBFFF751FF65E0374B18888D
:108D9000002300228521FEF772FA0B900B9B0693AD
:108DA000069B002B4FD0069808F006FB4BE00023F3
:108DB0008DF8083000238DF80930019B9B8802AAAA
:108DC00011461846FEF75FFA0B900B9B0793079B23
:108DD000002B3AD0079808F0EFFA36E0234B1888BA
:108DE000002300220021FEF752FA0B900B9B0993FF
:108DF000099B002B2BD0099808F0DEFA27E0019B95
:108E00009B8813211846FEF72EFA0B900B9B0893B4
:108E1000089B002B1DD0089808F0CEFA19E0019BA2
:108E20009B8813211846FEF71EFA0B900B9B0A93A2
:108E30000A9B002B0FD00A9808F0BEFA0BE000BF87
:108E40000AE000BF08E000BF06E000BF04E000BF8A
:108E500002E000BF00E000BF00BF0DB05DF804FB02
:108E600038B60300F8B50300B4B703001C2B00208C
:108E7000A82C0020C0B7030000B587B00CF07CF927
:108E80000590059B0493049B002B02D0049808F0E6
:108E900093FA0023019301AB194601200CF018FA54
:108EA0000590059B0393039B002B02D0039808F0C9
:108EB00083FA01AB18460CF029FB0590059B029341
:108EC000029B002B02D0029808F076FA00BF07B090
:108ED0005DF804FB00BF704700B583B003460A4647
:108EE0008DF8073013468DF806309DF806209DF862
:108EF000073011461846FDF7EBFF00BF03B05DF8E1
:108F000004FB00B583B001900198FDF786FF00BF18
:108F100003B05DF804FB000000B583B003468DF894
:108F200007300DF10703012204491846FDF7E6FF5B
:108F3000024B1B78184603B05DF804FB5C3500203B
:108F4000A8DF704700BF1846AEDF704700BF184665
:108F500000B585B00190019B002B0AD0074B43F070
:108F600001030393019B9B010293039B0298984783
:108F700000E000BF05B05DF804FB00BF20B80300AF
:108F800000B583B00190019B002B0AD04FF47A709A
:108F9000FFF7DEFF019B013B0193019B002BF5D105
:108FA00000E000BF03B05DF804FB82B001900091C7
:108FB000009B9A88019B1A8200BF02B0704782B062
:108FC00001900091019B4FF6FF721A8200BF02B020
:108FD000704700B585B001900091009B5B89022B22
:108FE00018D1019B1B68002B14D0009B0C33184632
:108FF00002F09CFD0346002B03D000238DF80C30BB
:1090000002E001238DF80C30019B1B6803AA114676
:109010000198984700BF05B05DF804FB00B585B026
:1090200001900091009B06330393039B1A88019BD8
:109030009B899A4203D103990198FFF7CAFF00BFA9
:1090400005B05DF804FB00B585B001900091009B70
:109050000393019B1B88502B10D0502B13DC102B3B
:1090600002D0112B05D00EE001990398FFF79DFF68
:109070000AE001990398FFF7A2FF05E00199039820
:10908000FFF7CCFF00E000BF00BF05B05DF804FBB8
:1090900000B58DB001900091009B1A68019B1A6089
:1090A000009B1A79019B5A71019B4FF6FF721A823D
:1090B00001238DF82A3041F60D03ADF82830019BCD
:1090C0009A1D0AAB19460120FFF73AFF0B900B9B44
:1090D000002B01D00B9B2EE002AB20220021184672
:1090E00011F09EFA42F63723ADF808308023ADF830
:1090F0000C300023ADF80E300023049301238DF8CB
:1091000014309DF8153043F010038DF81530009B96
:109110001B7B8DF81B30019BD888019B03F1080253
:1091200002AB194602F08AFD0B900B9B002B01D07D
:109130000B9B00E0002318460DB05DF804FB000017
:1091400000B58BB0039002910192039B1B8A4FF6EE
:10915000FF7293424FD0039B002B01D10E234DE0B1
:1091600005AB10220021184611F05AFA039B1B8907
:10917000ADF8143001238DF816300023ADF8183007
:10918000019B0793029B0893039B1B8A05AA114628
:109190001846FFF7D9FE09900AE06420FFF7F0FEB9
:1091A000039B1B8A05AA11461846FFF7CDFE0990BE
:1091B000099B112BF1D0099B132BEED0099B002B9F
:1091C0000AD0104A104BD31ADB081B0443F00303E8
:1091D0000E4918460BF066F8099B002B0DD1094A81
:1091E000094BD31ADB081B0443F003030849184654
:1091F0000BF058F801E008230993099B18460BB0BF
:109200005DF804FB38B60300F8B50300E0B70300CF
:10921000FCB7030082B001904FF0A043184602B0A3
:10922000704700B585B00190084611461A460346BE
:109230008DF803300B468DF8023013468DF801305F
:1092400001AB1846FFF7E6FF03909DF803209DF859
:1092500002305B001A439DF801309B001A439DF8D1
:1092600018301B0242EA03019DF81C301B04019ACE
:109270001943039B02F5E07243F8221000BF05B0CA
:109280005DF804FB00B585B0039000230193002333
:1092900000930023012201210398FFF7C2FF00BFC2
:1092A00005B05DF804FB00B585B003900B468DF862
:1092B0000B309DF80B300022019200220092002218
:1092C00000210398FFF7ADFF00BF05B05DF804FB78
:1092D00000B585B0019001AB1846FFF79BFF0390E6
:1092E000019B012202FA03F31946039800F02AF8C1
:1092F00000BF05B05DF804FB00B585B0019001AB7F
:109300001846FFF787FF0390019B012202FA03F33F
:109310001946039800F020F800BF05B05DF804FB83
:1093200000B583B001900091009B002B03D1019800
:10933000FFF7E2FF02E00198FFF7CAFF00BF03B0AA
:109340005DF804FB82B001900091019B009AC3F884
:10935000082500BF02B0704782B001900091019BC8
:10936000009AC3F80C2500BF02B0704700B583B067
:109370000190064A019B13441B7800211846FFF711
:10938000CFFF00BF03B05DF804FB00BF28B80300A7
:1093900000B583B00190064A019B13441B7801215C
:1093A0001846FFF7BDFF00BF03B05DF804FB00BF28
:1093B00028B8030000B583B00023019305E00198AD
:1093C000FFF7E6FF019B01330193019B032BF6D9C5
:1093D00000BF00BF03B05DF804FB000000B583B020
:1093E0000023019309E0094A019B13441B781846A6
:1093F000FFF748FF019B01330193019B032BF2D937
:10940000FFF7D8FF00BF03B05DF804FB28B80300E6
:1094100000B583B0002301930AE0094A019B13447D
:109420001B7803211846FFF73EFF019B0133019390
:10943000019B032BF1D900BF00BF03B05DF804FB13
:109440002CB8030000B583B00190019B03F0010329
:10945000002B01D0FFF7C2FF019B03F00203002B9A
:1094600001D0FFF7D5FF00BF03B05DF804FB00009B
:1094700084B001900B468DF8033013468DF802300E
:1094800000230393019B032B3CD89DF80230012B52
:109490000BD19DF80330012B04D1019BDBB20E33BD
:1094A000DBB200E000238DF802309DF80330022B80
:1094B0000FD0022B23DC002B16D0012B1FD1144917
:1094C000019A13465B0013440B449DF802201A7066
:1094D0001AE00F49019A13465B0013440B44013311
:1094E0009DF802201A700FE00949019A13465B00AB
:1094F00013440B4402339DF802201A7004E0072342
:10950000039301E007230393039B184604B07047BD
:109510006035002000B583B0012200210020FFF754
:10952000A7FF0190019B002B04D0019B072B01D0CA
:10953000019B1CE0072202210120FFF799FF019007
:10954000019B002B04D0019B072B01D0019B0EE057
:10955000042202210020FFF78BFF0190019B002BCA
:1095600004D0019B072B01D0019B00E0002318468B
:1095700003B05DF804FB00B583B001220221002096
:10958000FFF776FF0190019B002B04D0019B072B76
:1095900001D0019B1CE0072202210120FFF768FF98
:1095A0000190019B002B04D0019B072B01D0019B54
:1095B0000EE00A2200210020FFF75AFF0190019BD4
:1095C000002B04D0019B072B01D0019B00E000235E
:1095D000184603B05DF804FB00B585B0019000911A
:1095E000019B1B88102B02D0112B18D02FE01A4B97
:1095F0001B68002B0DD1FFF78DFF0390039B002B01
:1096000007D0164B1B68002B03D0144B1B68039824
:109610009847114B1B6801330F4A136017E00E4B3C
:109620001B68013B0C4A13600B4B1B68002B0DD1D0
:10963000FFF7A1FF0390039B002B07D0074B1B688C
:10964000002B03D0054B1B680398984700BF00BF51
:1096500005B05DF804FB00BF703500206C350020BC
:10966000BFF34F8F00BF064BDB6803F4E062044991
:10967000044B1343CB60BFF34F8F00BF00BFFDE728
:1096800000ED00E00400FA0582B01D4B1B68B3F149
:10969000FF3F0AD11B4B1B68DBB201931A4B1B68BF
:1096A0001B0903F00F03009305E0154B1B680193A2
:1096B000164B1B680093019B062B1DD1009B033B9F
:1096C000042B17D801A252F823F000BFE196020044
:1096D000E5960200E9960200ED960200F19602007E
:1096E00001230AE0012308E0012306E0012304E04E
:1096F000012302E0012300E00023184602B0704776
:1097000030010010E00F00F0E80F00F0340100100D
:1097100082B0174B1B68DBB20193164B1B681B0909
:1097200003F00F030093019B062B1DD1009B033B0D
:10973000042B17D801A252F823F000BF5197020062
:1097400055970200599702005D9702006197020049
:1097500001230AE0002308E0002306E0002304E0E0
:10976000002302E0002300E00023184602B0704707
:10977000E00F00F0E80F00F082B01D4B1B68B3F162
:10978000FF3F0AD11B4B1B68DBB201931A4B1B68CE
:109790001B0903F00F03009305E0154B1B680193B1
:1097A000164B1B680093019B062B1DD1009B033BAE
:1097B000042B17D801A252F823F000BFD197020062
:1097C000D5970200D9970200DD970200E1970200C9
:1097D00001230AE0012308E0012306E0012304E05D
:1097E000012302E0012300E00023184602B0704785
:1097F00030010010E00F00F0E80F00F0340100101D
:1098000082B0174B1B68DBB20193164B1B681B0918
:1098100003F00F030093019B062B1DD1009B033B1C
:10982000042B17D801A252F823F000BF4198020080
:1098300045980200499802004D9802005198020094
:1098400001230AE0002308E0002306E0002304E0EF
:10985000002302E0002300E00023184602B0704716
:10986000E00F00F0E80F00F082B01D4B1B68B3F171
:10987000FF3F0AD11B4B1B68DBB201931A4B1B68DD
:109880001B0903F00F03009305E0154B1B680193C0
:10989000164B1B680093019B062B1DD1009B033BBD
:1098A000042B17D801A252F823F000BFC198020080
:1098B000C5980200C9980200CD980200D198020014
:1098C00001230AE0012308E0012306E0012304E06C
:1098D000012302E0012300E00023184602B0704794
:1098E00030010010E00F00F0E80F00F0340100102C
:1098F00082B0174B1B68DBB20193164B1B681B0928
:1099000003F00F030093019B062B1DD1009B033B2B
:10991000042B17D801A252F823F000BF319902009E
:1099200035990200399902003D99020041990200DF
:1099300001230AE0002308E0002306E0002304E0FE
:10994000002302E0002300E00023184602B0704725
:10995000E00F00F0E80F00F082B0174B1B68DBB29D
:109960000193164B1B681B0903F00F030093019B27
:10997000062B1DD1009B033B042B17D801A252F8E4
:1099800023F000BF999902009D990200A19902005D
:10999000A5990200A999020001230AE0002308E02A
:1099A000002306E0002304E0002302E0002300E09F
:1099B0000023184602B07047E00F00F0E80F00F0F7
:1099C00082B01D4B1B68B3F1FF3F0AD11B4B1B68D4
:1099D000DBB201931A4B1B681B0903F00F030093C2
:1099E00005E0154B1B680193164B1B680093019B08
:1099F000062B1DD1009B033B042B17D801A252F864
:109A000023F000BF199A02001D9A0200219A020059
:109A1000259A0200299A020000230AE0002308E0A8
:109A2000012306E0012304E0012302E0012300E01A
:109A30000023184602B0704730010010E00F00F01C
:109A4000E80F00F03401001082B01D4B1B68B3F129
:109A5000FF3F0AD11B4B1B68DBB201931A4B1B68FB
:109A60001B0903F00F03009305E0154B1B680193DE
:109A7000164B1B680093019B062B1DD1009B033BDB
:109A8000042B17D801A252F823F000BFA19A0200BC
:109A9000A59A0200A99A0200AD9A0200B19A0200AA
:109AA00001230AE0012308E0012306E0012304E08A
:109AB000012302E0012300E00023184602B07047B2
:109AC00030010010E00F00F0E80F00F0340100104A
:109AD00082B01D4B1B68B3F1FF3F0AD11B4B1B68C3
:109AE000DBB201931A4B1B681B0903F00F030093B1
:109AF00005E0154B1B680193164B1B680093019BF7
:109B0000062B1DD1009B033B042B17D801A252F852
:109B100023F000BF299B02002D9B0200319B020015
:109B2000359B0200399B020001230AE0012308E073
:109B3000012306E0012304E0012302E0012300E009
:109B40000023184602B0704730010010E00F00F00B
:109B5000E80F00F03401001082B0154B1B68019330
:109B6000144B1B680093019B062B1DD1009B033BEC
:109B7000042B17D801A252F823F000BF919B0200DA
:109B8000959B0200999B02009D9B0200A19B0200F5
:109B900000230AE0002308E0002306E0012304E09C
:109BA000012302E0012300E00023184602B07047C1
:109BB000300100103401001082B0154B1B68019376
:109BC000144B1B680093019B062B1DD1009B033B8C
:109BD000042B17D801A252F823F000BFF19B02001A
:109BE000F59B0200F99B0200FD9B0200019C020014
:109BF00000230AE0002308E0002306E0002304E03D
:109C0000012302E0012300E00023184602B0704760
:109C1000300100103401001008B5FFF7CDFF0346F6
:109C2000002B07D04FF010234FF08042D3F80832BA
:109C3000C2F8583500BF08BD00BF044BD3F800344C
:109C4000002BFAD000BF00BF704700BF00E001400A
:109C500000B583B00190054A019BC2F80435FFF7B7
:109C6000EBFF00BF03B05DF804FB00BF00E0014064
:109C7000024B034A1A6000BF704700BF242B00202C
:109C80000090D00308B5FFF7FFFC0346002B06D079
:109C9000A44B1B681B0AA44A03F01F031360FFF7C1
:109CA00037FD0346002B02D0A04BA14A1A60FFF7F4
:109CB00063FD0346002B06D09E4B1B685B0B9E4A40
:109CC00003F007031360FFF79BFD0346002B05D04D
:109CD0009A4BDB68994A23F08073D360FFF7C4FD89
:109CE0000346002B0ED04FF080430022C3F80C2116
:109CF0004FF080430022C3F810214FF08043002230
:109D0000C3F83825FFF7F4FD0346002B02D08C4B37
:109D100003221A60FFF720FE0346002B0BD0894B6D
:109D200005221A60884B01221A60884B00221A60B3
:109D3000874B3F221A60FFF743FE0346002B76D085
:109D40004FF08053834AD3F80434C2F820354FF0E3
:109D50008053804AD3F80834C2F824354FF080533A
:109D60007C4AD3F80C34C2F828354FF08053794A36
:109D7000D3F81034C2F82C354FF08053754AD3F81D
:109D80001434C2F830354FF08053724AD3F8183487
:109D9000C2F834354FF080536E4AD3F81C34C2F801
:109DA00040354FF080536B4AD3F82034C2F8443525
:109DB0004FF08053674AD3F82434C2F848354FF047
:109DC0008053644AD3F82834C2F84C354FF080539E
:109DD000604AD3F82C34C2F850354FF080535D4AB6
:109DE000D3F83034C2F854354FF08053594AD3F881
:109DF0003434C2F860354FF08053564AD3F83834C3
:109E0000C2F864354FF08053524AD3F83C34C2F85C
:109E100068354FF080534F4AD3F84034C2F86C3560
:109E20004FF080534B4AD3F84434C2F87035FFF7F3
:109E30000BFE0346002B05D0474B1B68474A03F037
:109E40004F031360FFF744FE0346002B0DD04FF085
:109E50008043D3F8003403F00103002B05D04FF00A
:109E600080436FF00102C3F80024FFF775FE03463C
:109E7000002B05D03A4B1B68394A43F480631360CA
:109E8000384BD3F88830374A43F47003C2F888302F
:109E9000BFF34F8F00BFBFF36F8F00BFFFF7BCFE54
:109EA0004FF01023D3F80C3203F00103012B13D130
:109EB0000120FFF7CDFE4FF01023D3F80C324FF006
:109EC000102223F00103C2F80C32FFF7B5FE002088
:109ED000FFF7BEFEFFF7C4FB4FF01023D3F80032AC
:109EE000002B05DB4FF01023D3F80432002B15DADA
:109EF0000120FFF7ADFE4FF010231522C3F800221A
:109F0000FFF79AFE4FF010231522C3F80422FFF743
:109F100093FE0020FFF79CFEFFF7A2FBFFF7A8FED1
:109F200000BF08BD240300104035014074C0074045
:109F30000DF0ADBA440200103C050040F0ED00E029
:109F4000A0050040105600408856004018560040BA
:109F50001456004000C0004058020010E40E0040BB
:109F60003C17004000ED00E000487047644D0020C1
:109F700011F0CEBA6DDF704700BF184679DF704729
:109F800000BF18467DDF704700BF184664DF70478A
:109F900000BF184682B003460091ADF80630BDF808
:109FA0000630DAB2009B1A70BDF806301B0A9AB26E
:109FB000009B0133D2B21A700223184602B07047D8
:109FC00000B589B0039002911346ADF80630029BAC
:109FD0001B8803F10902BDF806309A4201D90C230F
:109FE00053E004AB1846FFF7C5FF0790079B0693A5
:109FF000069B002B01D0069B47E0029B1B881A465C
:10A00000039B134408221A70029B1B8801339AB2E7
:10A01000029B1A80029B1B881A46039B13441B2237
:10A020001A70029B1B8801339AB2029B1A80029B12
:10A030001B881A46039B981804AB01330622194665
:10A0400010F0C5FA029B1B8806339AB2029B1A8055
:10A050009DF8103023F00103DBB2002B07D1029BE7
:10A060001B881A46039B134400221A7006E0029BC9
:10A070001B881A46039B134401221A70029B1B88FB
:10A0800001339AB2029B1A800023184609B05DF88A
:10A0900004FB00B589B0039002910192ADF8023043
:10A0A000039B1B78012B05D1039B5B78002B01D10F
:10A0B000072392E0019B1B889A1CBDF802309A424C
:10A0C0000ED8039B1B78012B0CD1019B1B881A46D1
:10A0D000039B5B7813449A1CBDF802309A4201D965
:10A0E0000C237AE0019B1B88BDF80220D31A9BB297
:10A0F000023BADF81C30BDF81C30ADF81230019BAE
:10A100001B880233029A13440DF1120211461846BD
:10A11000FFF738FF0690069B0593059B002B01D0A7
:10A12000059B5AE0039B1B78022B06D0039B5B78B0
:10A130009AB2BDF812309A4209D3BDF81230BDF878
:10A140001C209A4203D309238DF81F3017E00823FF
:10A150008DF81F30039B1B78012B0CD1039B5B7880
:10A160009BB2BDF81C209A4205D3039B5B789BB23F
:10A17000ADF8123003E0BDF81C30ADF81230BDF878
:10A180001230FE2B01D90C2327E0BDF81230DAB2D1
:10A19000019B1B881946029B0B440132D2B21A70F4
:10A1A000019B1B8801339AB2019B1A80019B1B887B
:10A1B0001A46029B13449DF81F201A70019B1B88AE
:10A1C00001339AB2019B1A80019B1A88BDF81230A4
:10A1D00013449AB2019B1A800023184609B05DF817
:10A1E00004FB00B589B0039002911346ADF8063028
:10A1F000029B1B881A1DBDF806309A4201D90C2318
:10A200003BE00DF116031846FFF7B8FE0790079BD9
:10A210000693069B002B01D0069B2EE0029B1B8819
:10A220001A46039B134403221A70029B1B880133B6
:10A230009AB2029B1A80029B1B881A46039B134406
:10A2400019221A70029B1B8801339AB2029B1A8052
:10A25000BDF81620029B1B881946039B0B44194628
:10A260001046FFF797FE03461946029B1A888BB2E9
:10A2700013449AB2029B1A800023184609B05DF875
:10A2800004FB84B0029101921A4603468DF80F3008
:10A290001346ADF80C30019B1B88DA1CBDF80C305E
:10A2A0009A4201D90C2328E0019B1B881A46029B85
:10A2B000134402221A70019B1B8801339AB2019B3E
:10A2C0001A80019B1B881A46029B134401221A70B4
:10A2D000019B1B8801339AB2019B1A80019B1B884A
:10A2E0001A46029B13449DF80F201A70019B1B888D
:10A2F00001339AB2019B1A800023184604B07047BC
:10A3000084B0029101921A4603468DF80F3013462D
:10A31000ADF80C30019B1B88DA1CBDF80C309A425A
:10A3200001D90C2328E0019B1B881A46029B134489
:10A3300002221A70019B1B8801339AB2019B1A807A
:10A34000019B1B881A46029B13440A221A70019B28
:10A350001B8801339AB2019B1A80019B1B881A4605
:10A36000029B13449DF80F201A70019B1B88013338
:10A370009AB2019B1A800023184604B0704700B5BA
:10A380008FB0039001930B468DF80B3013468DF878
:10A390000A3000238DF83330109B1B88ADF8303025
:10A3A00000230D9371E0039B5A680D9B9B001A4498
:10A3B00005AB106818600DF11B0105AB00221846B3
:10A3C000FFF7E4FD0A900A9B0993099B002B01D03B
:10A3D000099B7CE09DF81B309DF80A209A4251D1E0
:10A3E0009DF83330002B01D0002300E002238DF8CC
:10A3F0002330109B1B881A469DF81B301A449DF889
:10A4000023301A44BDF844309A4201DD0C235EE04B
:10A410009DF8333083F00103DBB2002B16D0109B84
:10A420001B8801339AB2109B1A80109B1B881A4616
:10A43000019B13449DF80B201A70109B1B8801335D
:10A440009AB2109B1A8001238DF83330109B1B8821
:10A450001A46019B1A440DF11B0105AB1846FFF784
:10A4600095FD0A900A9B0793079B002B01D0079B41
:10A470002DE0109B1A889DF81B309BB213449AB2B2
:10A48000109B1A800D9B01330D93039B1B881A466A
:10A490000D9B934287DB9DF83330002B16D0109B29
:10A4A0001A88BDF83030D31A9BB2013BADF82E307C
:10A4B000BDF82E30FF2B01D90C2308E0BDF8303059
:10A4C000019A1344BDF82E20D2B21A700023184608
:10A4D0000FB05DF804FB00B58BB0059003930B46FD
:10A4E0008DF8133013468DF812309DF81310BDF817
:10A4F000343001930C9B0093039B02220598FFF7D5
:10A500003EFF0990099B0893089B002B01D0089BF4
:10A5100014E09DF81210BDF8343001930C9B0093A9
:10A52000039B10220598FFF72AFF0990099B0793C8
:10A53000079B002B01D0079B00E0002318460BB0BF
:10A540005DF804FB82B00190019B1B88052B0AD9A2
:10A55000019B1B88B3F5486F07D9019B1B884FF6F9
:10A56000FF72934201D0072325E0019B5B88052BF6
:10A570000AD9019B5B88B3F5486F07D9019B5B88BB
:10A580004FF6FF72934201D0072314E0019B1B8812
:10A590004FF6FF7293420DD0019B5B884FF6FF721E
:10A5A000934207D0019B1A88019B5B889A4201D98C
:10A5B000072300E00023184602B0704700B587B0BB
:10A5C000039002910192ADF80230019B1B889A1D05
:10A5D000BDF802309A4201D90C234DE00398FFF7F1
:10A5E000B1FF0590059B0493049B002B01D0049BB5
:10A5F00042E0019B1B881A46029B134405221A70F5
:10A60000019B1B8801339AB2019B1A80019B1B8816
:10A610001A46029B134412221A70019B1B880133B5
:10A620009AB2019B1A80039B1A88019B1B881946CA
:10A63000029B0B4419461046FFF7ACFC0346194633
:10A64000019B1A888BB213449AB2019B1A80039B18
:10A650005A88019B1B881946029B0B4419461046D9
:10A66000FFF798FC03461946019B1A888BB21344E6
:10A670009AB2019B1A800023184607B05DF804FBCC
:10A6800000B587B0039002910192ADF80230039BB0
:10A690009B8802330593019B1B881A46059B134434
:10A6A0009A1CBDF802309A4201D90C2354E0059B54
:10A6B000FE2B01D90C234FE0059BDAB2019B1B88CE
:10A6C0001946029B0B440132D2B21A70019B1B88BF
:10A6D00001339AB2019B1A80019B1B881A46029B88
:10A6E0001344FF221A70019B1B8801339AB2019B0D
:10A6F0001A80039B1A88019B1B881946029B0B44F6
:10A7000019461046FFF746FC03461946019B1A8876
:10A710008BB213449AB2019B1A80039B9B88002B37
:10A7200019D0039B9B68002B01D1072314E0019BE8
:10A730001B881A46029B9818039B9968039B9B8869
:10A740001A460FF044FF019B1A88039B9B88134411
:10A750009AB2019B1A800023184607B05DF804FBEB
:10A7600000B589B0039002910192ADF80230039BCD
:10A770009B6A002B01D1072372E000238DF81F3064
:10A7800066E0039B996A9DF81F2013465B00134403
:10A790009B000B440693069B9B8802330593059B05
:10A7A000FE2B01D90C235BE0059BDAB2019B1B88D1
:10A7B0001946029B0B440132D2B21A70019B1B88CE
:10A7C00001339AB2019B1A80019B1B881A46029B97
:10A7D000134416221A70019B1B8801339AB2019B05
:10A7E0001A80069B1A88019B1B881946029B0B4402
:10A7F00019461046FFF7CEFB03461946019B1A88FF
:10A800008BB213449AB2019B1A80069B9B88002B43
:10A8100019D0069B9B68002B01D1072320E0019BE8
:10A820001B881A46029B9818069B9968069B9B8872
:10A830001A460FF0CCFE019B1A88069B9B88134496
:10A840009AB2019B1A809DF81F3001338DF81F309A
:10A85000039B93F82C309DF81F209A4291D300233C
:10A86000184609B05DF804FB00B595B00590049159
:10A87000039200231393039B1B88ADF84A30039B7C
:10A8800000221A80059B93F82D30002B0ED0BDF8C6
:10A890004A301A4603990498FFF792FB1390139BD2
:10A8A0001193119B002B01D0119BD8E0059B9B7845
:10A8B000002B0ED0BDF84A301A4603990498FFF7D2
:10A8C00090FC1390139B1093109B002B01D0109BB6
:10A8D000C5E0059BDB78002B10D0059BDB7858B2D8
:10A8E000BDF84A30039A0499FFF7CBFC1390139BF1
:10A8F0000F930F9B002B01D00F9BB0E0059B5B6873
:10A90000002B11D0059B5B6893F90000BDF84A301D
:10A91000039A0499FFF7F4FC1390139B0E930E9B7C
:10A92000002B01D00E9B9AE0059B1B89002B14D0B5
:10A93000059B03F10800BDF84A300193039B009387
:10A94000049B06220221FFF7C6FD1390139B0D9373
:10A950000D9B002B01D00D9B81E0059B1B8A002BDA
:10A9600014D0059B03F11000BDF84A300193039BFE
:10A970000093049B07220321FFF7ADFD1390139B67
:10A980000C930C9B002B01D00C9B68E0059B1B8B50
:10A99000002B14D0059B03F11800BDF84A30019339
:10A9A000039B0093049B15221421FFF794FD139041
:10A9B000139B0B930B9B002B01D00B9B4FE0059B34
:10A9C0001B6A002B0FD0059B186ABDF84A30039A0A
:10A9D0000499FFF7F3FD1390139B0A930A9B002B36
:10A9E00001D00A9B3BE0059B5B6A002B0FD0059BC7
:10A9F000586ABDF84A30039A0499FFF741FE139054
:10AA0000139B0993099B002B01D0099B27E0059B11
:10AA100093F82C30002B0ED0BDF84A30039A0499DD
:10AA20000598FFF79DFE1390139B0893089B002B3E
:10AA300001D0089B13E0059B1B78002B0ED0BDF8BE
:10AA40004A30039A04990598FFF723FB1390139B50
:10AA50000793079B002B01D0079B00E0139B184630
:10AA600015B05DF804FB86B0039001921A460B46C0
:10AA7000ADF80A3013468DF80930039B002B02D045
:10AA8000019B002B01D100235CE00023ADF81630C0
:10AA90000CE0BDF81630039A13441B789AB2BDF847
:10AAA000163013449BB20133ADF81630BDF81630A2
:10AAB0005A1CBDF80A309A420FDA019B1B88BDF878
:10AAC00016209A42E5D3BDF816300133039A134499
:10AAD0001B789DF809209A42DBD1BDF81620BDF8FD
:10AAE0000A309A4201D300232CE0BDF8163002331D
:10AAF000ADF81430BDF81630039A13441B78002BC0
:10AB000008D0BDF81630039A13441B789BB2013B62
:10AB10009BB200E00023ADF81230BDF81230002BDC
:10AB200008D0BDF81420BDF812301A44BDF80A3020
:10AB30009A4201DD002305E0019BBDF814201A8034
:10AB4000BDF81230184606B0704700B585B00190C8
:10AB50000B46ADF8023013468DF801300023ADF8F6
:10AB60000C309DF8013003AABDF802100198FFF7E0
:10AB70007AFF0346ADF80E30BDF80E30002B01D140
:10AB8000002304E0BDF80C301A46019B134418461C
:10AB900005B05DF804FB72DF704700BF184673DF35
:10ABA000704700BF184682B00190019B93F8303483
:10ABB000184602B0704784B00190002303930AE066
:10ABC000019A039B13441B78002B01D0012306E05C
:10ABD000039B01330393039B052BF1D900231846F4
:10ABE00004B0704782B003468DF807309DF80730F7
:10ABF0005A1C074B83FB02135910D317C91A0B4673
:10AC00009B000B44D11ACBB2184602B0704700BF6C
:10AC10006766666682B001900091009BDB7B012B2A
:10AC200004D1009B9A88019BA3F8242400BF02B0A2
:10AC3000704700B585B001900091019B002283F818
:10AC40002E24009B9A88019BB3F824349A4216D193
:10AC5000019B1B7983F00103DBB2002B0FD0012194
:10AC6000019800F0AFF90390039B002B07D0019BE4
:10AC70009B6B002B03D0019B9B6B0398984700BFF5
:10AC800005B05DF804FB00B585B001900091009B14
:10AC90001B88262B1ED1009B1B7A012B03D0009B07
:10ACA0001B7A022B17D1019B9B781846FFF79AFF5E
:10ACB00003461946019800F085F90390039B002B89
:10ACC00009D0019B9B6B002B05D0019B9B6B0398CC
:10ACD000984700E000BF05B05DF804FB00B585B003
:10ACE00001900B468DF80330019B03F22743184671
:10ACF000FFF761FF03468DF80F309DF80330013BED
:10AD0000032B33D801A252F823F000BF1DAD02007F
:10AD100041AD020055AD020061AD0200019B9B797F
:10AD2000002B0DD0019B93F8243083F00103DBB29C
:10AD3000002B05D09DF80F30002B01D0012316E029
:10AD4000019BDB79002B05D09DF80F30002B01D043
:10AD500002230CE0019B1B7A002B01D0032306E0A9
:10AD6000019B5B7A002B01D0042300E000231846EE
:10AD700005B05DF804FB00BF82B001900091019B1B
:10AD8000012283F83120019B0022C3F82024019B7B
:10AD900003F22642009B5A60009B00229A60009BAF
:10ADA00002221A70009B80229A810023184602B06A
:10ADB000704782B001900091019B022283F83120FC
:10ADC000019B93F82430002B03D0009B07221A70BC
:10ADD00002E0009B03221A70019B1B699AB2009B40
:10ADE0009A81019B0022C3F82024019B03F2264292
:10ADF000009B5A60019BDA68009B9A60002318460A
:10AE000002B0704700B583B00190019B5B79002BC5
:10AE10000FD0019B93F82E3483F00103DBB2002B9B
:10AE200007D00198FFF7BFFE0346002B01D0012396
:10AE300000E0002303F00103DBB2184603B05DF825
:10AE400004FB00B585B001900B468DF80330019BE3
:10AE5000D3F81004019BB3F8143401221946FFF70C
:10AE600074FE0390039B002B03D0039B9DF80320EB
:10AE70001A70019B03F15400019B03F58261019B51
:10AE80003C331A46FFF787FE0346184605B05DF8C7
:10AE900004FB00B585B001900091019B5A69009BAD
:10AEA0009A60019B9B699AB2009B9A81019B93F8DF
:10AEB0002430002B04D0019B062283F83C2003E0C1
:10AEC000019B012283F83C200198FFF79BFF03467A
:10AED000002B13D0009B02221A7504210198FFF762
:10AEE000B0FF0390039B0293029B002B01D0029BB7
:10AEF0000FE0019B052283F8312003E0019B032230
:10AF000083F83120019B03F58262019BC3F8202462
:10AF10000023184605B05DF804FB00B585B001902C
:10AF20000091019BDA69009B9A60019B1B6A9AB2AF
:10AF3000009B9A81019B93F82430002B04D0019B45
:10AF4000062283F83C2003E0019B012283F83C2089
:10AF50000198FFF757FF0346002B13D0009B0222F6
:10AF60001A7504210198FFF76CFF0390039B02936D
:10AF7000029B002B01D0029B0FE0019B062283F86D
:10AF8000312003E0019B042283F83120019B03F56B
:10AF90008262019BC3F820240023184605B05DF8A7
:10AFA00004FB82B00190019B1B68012B03D0019B25
:10AFB0001B68022B01D1012300E00023184602B0D8
:10AFC0007047000000B585B001900B468DF8033046
:10AFD000019B1B7883F00103DBB2002B01D0082317
:10AFE00009E1019B9DF803209A70019B03F226431F
:10AFF0000722002118460FF013FB019B9B79002BC1
:10B0000003D0019B9B78012B0FD0019BDB79002B98
:10B0100003D0019B9B78012B07D0019BDB79002B90
:10B0200014D0019B9B78022B10D1019B5B6B002BF2
:10B0300008D0019B012283F82D24019B5B6B082023
:10B04000984703E0019B002283F82D249DF80330EC
:10B0500019460198FFF742FE03461A46019B9A7073
:10B06000019B5B6B002B20D0019B9B78032B03D0B3
:10B07000019B9B78042B18D1019B5B79002B14D08A
:10B08000019B93F82E3483F00103DBB2002B0CD02C
:10B09000019B002283F83024019B012283F82F2496
:10B0A000019B5B6B0720984703E0019B002283F81C
:10B0B0002F24019B3C331822002118460FF0B0FAD0
:10B0C000019B012283F83C20019B2C331846FFF79B
:10B0D00068FF0346002B06D0019BDB6ADAB2019BB6
:10B0E00083F8512003E0019B012283F85120019B4A
:10B0F00093F82430002B12D0019B28331846FFF719
:10B1000050FF0346002B06D0019B9B6ADAB2019BDD
:10B1100083F8522003E0019B012283F85220019B17
:10B12000002283F85020019B9B78042B31D801A288
:10B1300052F823F089B1020049B1020059B102006E
:10B1400069B1020079B10200019B3C3319460198B4
:10B15000FFF712FE03901DE0019B3C331946019856
:10B16000FFF727FE039015E0019B3C331946019839
:10B17000FFF78FFE03900DE0019B3C3319460198C9
:10B18000FFF7CBFE039005E0019B002283F83120FE
:10B1900000E000BF019B9B78002B20D0019B03F1B6
:10B1A0005400019BD3F82014019B3C331A46FFF74F
:10B1B000F2FC0390039B002B01D0039B1BE0019B3F
:10B1C00093F85420019B93F8303019461046FFF74E
:10B1D000E6FC0390039B002B01D0039B0BE0019B3B
:10B1E0005B6B002B06D0019B5B6B019A92F83120C0
:10B1F000104698470023184605B05DF804FB00BFD1
:10B2000000B585B001900091009B0393019B1B88C2
:10B21000262B10D0262B13DC102B02D0112B05D09F
:10B220000EE001990398FFF7F5FC0AE001990398F5
:10B23000FFF7FFFC05E001990398FFF724FD00E00C
:10B2400000BF00BF05B05DF804FB75DF704700BFAD
:10B25000184676DF704700BF18467ADF704700BF98
:10B2600018467BDF704700BF1846000084B00346D5
:10B27000ADF806300023039316E00F49039A1346F6
:10B280009B0013449B000B441B88BDF806209A4288
:10B2900007D1039A13469B0013449B00064A1344AC
:10B2A00006E0039B01330393039B002BE5D00023AF
:10B2B000184604B0704700BF9835002082B0019056
:10B2C0000B46ADF80230019BBDF802201A80019BAD
:10B2D00000221A72019B054903F10A020B4603CBB7
:10B2E0001060516000BF02B0704700BFC835002039
:10B2F00082B00190019B4FF6FF721A8000BF02B02E
:10B30000704788B00390029111461A460B46ADF87B
:10B3100006301346ADF80430039B9B881A46BDF8EF
:10B32000063013440793039B9B881946039B9B8815
:10B33000BDF80620934228BF13469BB2CB1A069352
:10B34000039BDB881A46BDF8043013440593039B26
:10B35000DB881946039BDB88BDF80420934228BF95
:10B3600013469BB2CB1A0493029B5A88039B1B88FB
:10B370009A4205D3029B5A88039B5B889A4201D963
:10B3800000231CE0029B9B881A46069B934205D82B
:10B39000029B9B881A46079B934201D200230EE032
:10B3A000029BDB881A46049B934205D8029BDB88EC
:10B3B0001A46059B934201D2002300E00123184660
:10B3C00008B0704700B583B00190064B9B69002B15
:10B3D00003D0044B9B690198984700BF03B05DF808
:10B3E00004FB00BFAC35002000B585B003460091DA
:10B3F000ADF80630BDF8063000991846FFF725FF76
:10B400000390039B002B05D0039B112B02D00398C4
:10B41000FFF7D8FF039B002B0CBF01230023DBB2F7
:10B42000184605B05DF804FB00B589B00190019B9A
:10B430000793079B9BB21846FFF718FF0690069BE1
:10B44000002B42D0069B1A7A224B1B7B9A4215D2C4
:10B45000079B9AB2069B0A3319461046FFF7C4FFB2
:10B4600003468DF813309DF81330002B2DD0069B2A
:10B470001B7A0133DAB2069B1A7226E0069B002281
:10B480001A72144B1B7C002B0FD0079B9BB23B21E5
:10B490001846FFF7DEFE0590059B002B05D0059BA7
:10B4A000082B02D00598FFF78DFF0A4B5B69002B34
:10B4B0000BD000238DF80C30079B9BB2ADF80E30FB
:10B4C000044B5B6903AA1046984700BF09B05DF8BA
:10B4D00004FB00BFAC35002030B587B00190019B64
:10B4E000002B01D10E2353E02B4A019B14461D462D
:10B4F0000FCD0FC495E8070084E80700264B274AC4
:10B500001A60019B1B68002B11D0019B1B68184619
:10B51000FFF7A3FE0490049B002B01D0049B37E0AF
:10B52000019B1A681D4B1068516803C308E01B4853
:10B53000FFF797FE0490049B002B01D0049B27E0AB
:10B540000023059320E0059A13469B0013449B00BB
:10B55000134A134403930398FFF7CAFE059B5B014C
:10B56000104A1A44039B5A60039B04330E4A00217D
:10B57000184606F089FA0490049B002B01D003239F
:10B5800006E0059B01330593059B002BDBD00023D0
:10B59000184607B030BD00BFAC350020C8350020CC
:10B5A000983500207835002029B4020000B587B016
:10B5B00003460091ADF80630009B5B7A002B1AD150
:10B5C000009B1B7A002B03D1164B5B68059302E0AE
:10B5D000144B9B680593009B5B68BDF8062005999A
:10B5E000184606F077FA0490049B002B16D00498B6
:10B5F000FFF7E8FE12E0009B00221A72094B5B691C
:10B60000002B0BD001238DF80C30BDF80630ADF8BF
:10B610000E30044B5B6903AA1046984700BF07B081
:10B620005DF804FBAC35002000B585B00190019BAE
:10B63000DB7B8DF80F30019B9B88ADF80C309DF8BB
:10B640000F30012B2CD14FF6FF70FFF70FFE029049
:10B65000029B002B03D10420FFF7B4FE21E0BDF8CC
:10B660000C3019460298FFF729FE029B03F10A00ED
:10B67000019B03F110014FF6FF7340F2F312FFF745
:10B6800040FE03461A46029B5A72074BDB89002B89
:10B6900007D1BDF80C3002991846FFF787FF00E08C
:10B6A00000BF05B05DF804FBAC35002000B587B0E5
:10B6B0000190019B9B88ADF81630BDF816301846F6
:10B6C000FFF7D4FD0490049B002B0ED0049B5B6815
:10B6D000184606F04CFA0390039B002B02D0039807
:10B6E000FFF770FE0498FFF703FE00BF07B05DF898
:10B6F00004FB000000B587B00190019B0633059361
:10B70000059B1A88194BDB899A422BD1059B5B89D3
:10B71000022B27D1019B9B88ADF81230BDF8123067
:10B720001846FFF7A3FD0390039B002B1AD0059B3F
:10B730000C33184600F0FAF90346002B06D0BDF88A
:10B74000123003991846FFF731FF0BE0039B5B684B
:10B75000184606F00CFA0290029B002B02D00298C9
:10B76000FFF730FE00BF07B05DF804FBAC350020EA
:10B7700000B585B00190019B9B88ADF80E30BDF8F7
:10B780000E301846FFF772FD0290029B002B15D079
:10B79000029B03F10A00019B03F108014FF6FF73BE
:10B7A00040F2F312FFF7ADFD03461A46029B5A72B0
:10B7B000BDF80E3002991846FFF7F8FE00BF05B03D
:10B7C0005DF804FB00B583B001900091019B1B88DC
:10B7D000502B12D0502B18DC122B12D0122B14DC51
:10B7E000102B02D0112B04D00FE00198FFF71CFFA3
:10B7F0000CE00198FFF75AFF08E00198FFF77AFF85
:10B8000004E00198FFF7B4FF00E000BF00BF03B001
:10B810005DF804FB30B58FB00190009100230293D6
:10B82000009B002B1AD000230D9314E06B460D995A
:10B83000184607F038F80346002B09D0029B5A1C23
:10B8400002920D9A92B25B000EA90B4423F82C2CA5
:10B850000D9B01330D930D9B132BE7D9019B1D46C7
:10B8600002AC0FCC0FC50FCC0FC594E8070085E8DC
:10B87000070001980FB030BD00B583B00346ADF8A6
:10B880000630BDF80630132B01D900230CE0BDF8BB
:10B8900006301946064806F0D5FFBDF806301946B1
:10B8A000044806F0CFFF0123184603B05DF804FBFF
:10B8B000D8350020D435002000B585B00346ADF85A
:10B8C0000630002303930DE0039B9B00094A1344B9
:10B8D0000433BDF806201146184606F0CBFF039B43
:10B8E00001330393039B1D2BEED900BF00BF05B0AE
:10B8F0005DF804FBD035002000B583B00346ADF8F9
:10B900000630BDF806301946034806F0B3FF00BF05
:10B9100003B05DF804FB00BFD835002030B59BB004
:10B92000184B9B68DB431893164B5A6818AB1146AB
:10B93000184607F017F8189A6B4611461846FFF795
:10B9400069FF0DAC6D460FCD0FC40FCD0FC495E848
:10B95000070084E80700002319930BE0199B5B00A4
:10B960001AAA134433F8303C1846FFF7A5FF199B79
:10B97000013319930D9B199A9A42EFD300BF00BF70
:10B980001BB030BDD035002000B583B001900B4610
:10B99000ADF8023013468DF801309DF80130002BD0
:10B9A00006D0BDF802301946019806F04BFF05E0BD
:10B9B000BDF802301946019806F05CFF00BF03B0E5
:10B9C0005DF804FB00B585B001900091019B9B8858
:10B9D000ADF80E30019B1B88103B0A2B00F28680CD
:10B9E00001A252F823F000BF15BA02004DBA0200BE
:10B9F000EDBA0200EDBA0200EDBA0200EDBA0200A3
:10BA0000EDBA0200EDBA0200EDBA0200B7BA0200C8
:10BA100059BA0200FFF782FFBDF80E301846FFF753
:10BA20002BFF034683F00103DBB2002B03D004207D
:10BA300005F0C2FC57E0019BDB7B022B53D1BDF824
:10BA40000E3019462B4806F0FDFE4CE0BDF80E30D6
:10BA50001846FFF751FF49E0019B1B7AC3F303131C
:10BA6000DBB28DF80D309DF80D30032B8CBF012318
:10BA70000023DAB2BDF80E3019461F48FFF784FFE5
:10BA80009DF80D30022B8CBF01230023DAB2BDF8E4
:10BA90000E3019461948FFF777FF9DF80D30012B3E
:10BAA0008CBF01230023DAB2BDF80E3019461448CA
:10BAB000FFF76AFF1AE0019B1B7A002B15D1019B4F
:10BAC0005B7AC3F3C003DBB2002B14BF0123002356
:10BAD0008DF80C309DF80C20BDF80E301946064844
